:1000000033C057C056C055C016C353C052C051C0AC
:1000100050C04FC04EC04DC04CC04BC04AC079C547
:1000200091C590C58DC58EC572C58CC58BC58AC559
:1000300061C588C587C576C581C57EC583C582C5AE
:1000400081C578C5010204081020010101010101E8
:100050000036003800371F1C1F1E1F1E1F1F1E1FCB
:100060001E1F4701C102010311241FBECFE5D2E0CC
:10007000DEBFCDBF10E0A0E6B0E0E6EBF2E102C0EB
:1000800005900D92A83CB107D9F720E0A8ECB0E0AC
:1000900001C01D92AD3FB207E1F710E0C4E3D0E02C
:1000A00003C02197FE01DDD7C133D107D1F7B0D20C
:1000B00000C9A6CFCF93DF9300D000D000D0CDB73A
:1000C000DEB78EED90E09093DB008093DA00E09154
:1000D000DE00F091DF000190F081E02D099561E0F4
:1000E00084E057D362E081E054D387ED90E07BD683
:1000F00083ED90E057D460E070E081ED90E0C4D5EE
:1001000081ED90E039D5811112C060E670E088ED94
:1001100090E029D144E750E06DE770E0CE01019610
:10012000CFD4BE016F5F7F4F81ED90E045D526961D
:100130000FB6F894DEBF0FBECDBFDF91CF9108950B
:100140000F931F93CF93DF9300D000D000D0CDB793
:10015000DEB75A836B837C838D839E838901642FF2
:1001600070E06053784F4AE050E088ED90E0DDD1D8
:1001700040E050E06FE288ED90E0B2D14AE050E01C
:100180006A8188ED90E0BED140E050E06FE288EDFA
:1001900090E0A6D14AE050E06B8188ED90E0B2D1CA
:1001A00040E050E060E288ED90E09AD14AE050E013
:1001B0006C8188ED90E0A6D140E050E06AE388EDE4
:1001C00090E08ED14AE050E06D8188ED90E09AD1C8
:1001D00040E050E06AE388ED90E082D14AE050E0F0
:1001E0006E8188ED90E08ED140E050E060E288EDD5
:1001F00090E076D14AE050E0B80188ED90E0269694
:100200000FB6F894DEBF0FBECDBFDF91CF911F9127
:100210000F9190C183ED90E060D39093CF008093D5
:10022000CE0081ED90E062D5B22FA32FF42FE52F01
:10023000CB01B093C800A093C900F093CA00E0932B
:10024000CB006093CC009093CD002091CE003091F4
:10025000CF004B2F5A2F6F2F7E2F72DF8091CE0051
:100260009091CF000B9778F081E004D3892B59F05F
:100270001092D0006091D00084E0C9D260E177E2B2
:1002800080E090E048C281E08093D000F3CF87ED1A
:1002900090E0A8D567ED70E083ED90E016D367EDB0
:1002A00070E081ED90E064D440E050E0BA0188EC69
:1002B00090E08FC30F931F93CF93DF93EC018B01DB
:1002C000F80161918F01662341F0E881F981019085
:1002D000F081E02DCE010995F3CFDF91CF911F91F1
:1002E0000F910895EF92FF920F931F93CF93DF9397
:1002F0007C01EB018B01040F151FC017D10751F0D2
:100300006991D701ED91FC910190F081E02DC70139
:100310000995F3CFDF91CF911F910F91FF90EF904F
:100320000895DC01ED91FC910190F081E02D642FA6
:100330000994DC01ED91FC910280F381E02D099498
:10034000CF93DF93EC014DE050E060E070E0E9DF37
:100350004AE050E060E070E0CE01E3DF82E090E050
:10036000DF91CF910895CF93DF93EC01E2DFCE01CF
:10037000DF91CF91E5CF4F925F926F927F92AF92D4
:10038000BF92CF92DF92EF92FF920F931F93CF9382
:10039000DF93CDB7DEB7A0970FB6F894DEBF0FBEE0
:1003A000CDBF8C014115510561057105C9F440E3CC
:1003B00050E060E070E0A0960FB6F894DEBF0FBE8C
:1003C000CDBFDF91CF911F910F91FF90EF90DF9004
:1003D000CF90BF90AF907F906F905F904F90A1CFE4
:1003E000CE0101965C01C12CD12C7601422E512CFC
:1003F000612C712C9FEFC91AD90AE90AF90ACB01BD
:10040000BA01A30192010BD6942F852FF5016193B8
:100410005F01A901692F782F41155105610571050B
:1004200049F7F1E0CF1AD108E108F108FE01EC0D1F
:10043000FD1D41814A3010F4405D01C0495C50E02F
:1004400060E070E0C8016DDFC114D104E104F10483
:1004500041F7A0960FB6F894DEBF0FBECDBFDF9177
:10046000CF911F910F91FF90EF90DF90CF90BF90B1
:10047000AF907F906F905F904F900895CF92DF92F2
:10048000EF92FF92CF93DF93EC016A017B0121157C
:10049000310539F4DF91CF91FF90EF90DF90CF904D
:1004A00040CF2A30310591F477FF0FC020E030E0D3
:1004B0004DE250E060E070E0E1DFF094E094D09431
:1004C000C094C11CD11CE11CF11C2AE0B701A6019B
:1004D000CE01DF91CF91FF90EF90DF90CF904BCF87
:1004E0009A01462F50E060E070E0C8CF2115310539
:1004F00041F4DC01ED91FC910190F081E02D642F3D
:10050000099439CF9A01462F50E060E070E0EECFB9
:10051000CF93DF93EC019A01462F50E060E070E04A
:10052000E5DFCE01DF91CF910BCF9A01AB0160E007
:1005300070E0DCCFCF93DF93EC019A01AB0160E078
:1005400070E0D4DFCE01DF91CF91FACE0895089507
:1005500080E090E008958FEF9FEF08958FEF9FEF79
:1005600008950895DC0112968D919C911397DC01FA
:10057000ED91FC910280F381E02D099581E090E0FE
:100580000895ACEDB0E08DE890E011969C938E93C9
:10059000E8EDF0E085E990E091838083B383A28366
:1005A0000895BB9AC39A0895862F880F8E7162951D
:1005B0006F70606122E095E054E0F89407C000009D
:1005C000000000000000000000000000879510F00F
:1005D000C39802C0C39A0000579510F400000000B1
:1005E0004CE14A95F1F70000000000009A9539F7B8
:1005F00000002A9521F095E0862F52E0E7CF78940D
:10060000089587EA90E09093DF008093DE000895DC
:10061000A6D050DDFFDDFECF83B7887F83BF8AB5CC
:100620008C7F81608ABD83B7877F83BF83B7887FD4
:10063000826083BF08951F920F920FB60F9211240C
:100640002F933F938F939F93AF93BF938091E1003C
:100650009091E200A091E300B091E4003091E000BD
:1006600026E0230F2D3730F029E8230F0396A11D34
:10067000B11D03C00296A11DB11D2093E00080931F
:10068000E1009093E200A093E300B093E400809136
:10069000E5009091E600A091E700B091E800019696
:1006A000A11DB11D8093E5009093E600A093E700A3
:1006B000B093E800BF91AF919F918F913F912F919F
:1006C0000F900FBE0F901F9018953FB7F894809130
:1006D000E5009091E600A091E700B091E8002FB509
:1006E00008B602FE05C02F3F19F00196A11DB11DED
:1006F0003FBFBA2FA92F982F8827820F911DA11DC8
:10070000B11DBC01CD0143E0660F771F881F991F03
:100710004A95D1F70895CF92DF92EF92FF92CF934F
:10072000DF936B017C01D1DFEB01C114D104E10443
:10073000F10471F0CADF6C1B7D0B683E7340A8F3B7
:1007400081E0C81AD108E108F108C851DC4FEDCFAB
:10075000DF91CF91FF90EF90DF90CF900895789444
:1007600080B7806880BF80B7806480BF8CB58064AC
:100770008CBD8FEF8DBD80B7807F846080BF89B7CF
:10078000846089BF49DF86B1887F836086B9379AE4
:100790000895CF93DF93A82FB0E0FD01EC5BFF4FEE
:1007A0008491FD01E65BFF4FA491AA2369F1B0E0BB
:1007B000FD01EC5AFF4FE491CE2FD0E0FD01EE5A3F
:1007C000FF4FA491B0E061110BC02FB7F89498814E
:1007D000E82FE095892F8E2388838C91E8230BC026
:1007E000623061F42FB7F8949881382F30959323B5
:1007F0009883EC91E82BEC932FBF06C09FB7F89439
:10080000E881E82BE8839FBFDF91CF910895282FDF
:1008100030E0F901EC5BFF4F9491F901E65BFF4F8B
:10082000E491EE2331F1811103C08AB58F7304C0C6
:10083000813021F48AB58F7C8ABD05C0843019F4DB
:100840008CB58F7C8CBDF0E0EE5AFF4FA491B0E0E8
:10085000611109C02FB7F8948C91E92FE095E82336
:10086000EC932FBF08958FB7F894EC91E92BEC939C
:100870008FBF0895282F30E0F901EC5BFF4F949172
:10088000F901E65BFF4FE491EE23E1F0811103C033
:100890008AB58F7304C0813021F48AB58F7C8ABDFC
:1008A00005C0843019F48CB58F7C8CBDF0E0E05B22
:1008B000FF4FA491B0E0EC91E92381E090E021F4B6
:1008C00080E0089580E090E00895FC0173836283E6
:1008D00083E2808380E1818308950F931F93CF93F8
:1008E000DF938C0142E0FC016081828193819BD285
:1008F000F80182819381AAD2C82FD0E0DC2FCC27C7
:10090000F80182819381A2D2BE01682B80E090E041
:1009100042D42AE939E949E95FE3A9D310D4CB01EC
:10092000DF91CF911F910F9108951F93CF93DF9384
:10093000EC01162F68818A819B8156D2612F8A81B2
:100940009B8158D28A819B81DF91CF911F915EC29A
:100950000F931F93CF938C01C62F633161F028F45E
:1009600080EF860F823080F406C0603268F0623219
:1009700010F0633249F46C2FC801D7DFF801C1834E
:10098000CF911F910F9108956BEA70E088ED90E090
:10099000D0DC40E150E06C2F88ED90E0CF911F91CA
:1009A0000F91B6CDCF93DF93EC0161E0BEDF69819B
:1009B000CE01DF91CF91CCCFFC01908180ED890FEA
:1009C0008A3008F080E0218120536AE013D3820F3F
:1009D00008958F929F92AF92BF92CF92DF92EF9243
:1009E000FF92CF93DF93EC016A017B0180E8C81A84
:1009F00083E4D80A8DE6E80A88E3F80A8CE3882EB7
:100A0000912CA12CB12CC701B601A501940107D3EB
:100A10006D83CA01B901A501940101D36C83C7019B
:100A2000B60120E13EE040E050E0F9D2CA01B90150
:100A300028E130E040E050E0F2D26B83C701B6011C
:100A400020E831E541E050E0EAD2188263E97EEF28
:100A50008881982F937041E050E011F040E050E021
:100A6000FA01E359FE4F2E173F0740F0FB01E41B4C
:100A7000F50B2E0F3F1F8F5F8883EACF81E08983BC
:100A80008981E82FF0E0EB5AFF4FE491911103C008
:100A9000823009F4EF5FF0E02E173F0720F02E1BA5
:100AA0003F0B8F5FECCF2F5F2A83DF91CF91FF90B9
:100AB000EF90DF90CF90BF90AF909F908F90089570
:100AC000EF92FF920F931F93CF93DF93EC017B0183
:100AD0008A01CB01099670DF8883D701EC918E2FB4
:100AE00090E0FC01E154F109E331F10558F5E15FD3
:100AF000FF4F0994F7018181813639F082818E366A
:100B000011F087E01EC086E01CC081E01AC082E0C0
:100B100018C0D70112968C91823711F088E011C06D
:100B200084E00FC0F7018281823711F085E009C0AF
:100B300083E007C089E005C08AE003C08BE001C004
:100B40008CE08983C701049637DF8A83C80134DFCC
:100B50008B83C801039630DF8C83C80106962CDF97
:100B60008D83DF91CF911F910F91FF90EF900895AA
:100B7000FC01718360830895CF93DF93EC0168E6F5
:100B80008881998131D160E08881998133D18881D0
:100B900099813CD141E068E68881998144D188817E
:100BA000998154D190E0880F892F881F990B21E0FB
:100BB0008227DF91CF910895EF92FF921F93CF93F9
:100BC000DF93EC017B0168E6888199810DD160E0BB
:100BD000888199810FD1F70125811AE0822F612F39
:100BE00012D266E007D2682F620F8881998102D104
:100BF000F7012481822F612F06D266E0FBD1682F96
:100C0000620F88819981F6D0F7012381822F612FAD
:100C1000FAD166E0EFD1682F620F88819981EAD01E
:100C200060E088819981E6D0F7012281822F612FCF
:100C3000EAD166E0DFD1682F620F88819981DAD02E
:100C4000F7012181822F612FDED166E0D3D1682F99
:100C5000620F88819981CED0F7012081822F612F88
:100C6000D2D166E0C7D1682F620F88819981C2D046
:100C700060E088819981BED088819981DF91CF9190
:100C80001F91FF90EF90C2C00F931F93CF93DF93FC
:100C90008C01EB0168E6FC0180819181A5D067E0C1
:100CA000F80180819181A6D0F80180819181C230C4
:100CB000D10581F034F4209759F0219779F460E15F
:100CC0000CC0C330D10541F0249741F463E105C065
:100CD00060E803C061E101C062E18CD0F80180816D
:100CE0009181DF91CF911F910F9190C0FF920F934F
:100CF0001F93CF93DF93CDB7DEB72A970FB6F89443
:100D0000DEBF0FBECDBF8C0168E6FC018081918102
:100D10006BD060E0F801808191816CD0F801808116
:100D2000918174D047E068E6F801808191817BD0A1
:100D3000F801808191818AD0782F7F77872F8295E3
:100D40008F706AEF57D1780FF801808191817A878F
:100D50007DD0982F82958F706AEF4CD1F82EF90EC6
:100D6000F8018081918172D0582F82958F706AEF3F
:100D700041D1580FF80180819181598767D0F801DE
:100D80008081918163D0482F82958F706AEF32D134
:100D9000480FF80180819181488758D0382F82957B
:100DA0008F706AEF27D1380FF801808191813F83DE
:100DB0004DD0282F82958F706AEF1CD1280F3F816C
:100DC000488559856F2D7A8580E090E02A960FB688
:100DD000F894DEBF0FBECDBFDF91CF911F910F9171
:100DE000FF90089508953CC01092EB00660F609349
:100DF000EC000895E091EB00E03138F4EF5FE09310
:100E0000EB00F0E0E451FF4F608308956091EB0048
:100E10006F5F8CEE90E0EBD01092EB00811101C07F
:100E20002AC080E008951092EA004093E900660F1E
:100E3000862F81608093EC0061E0640F8CEE90E07F
:100E4000D6D0811101C017C080E00895E091EA007A
:100E5000EF5FE093EA00F0E0E451FF4F80810895F6
:100E6000C09AC29ABA9AB89A8FEF8FB98AE28DB9AE
:100E700080EF8EB908958091FC0008958EB98BE2C1
:100E800000C000C000008DB9B29BFECF00C000C002
:100E90008DB9769BF5CF00C000C000008FB19FEFE9
:100EA0009FB9B89A0895C29AC29BFECF00C000C0F5
:100EB0000000C09800C000C0C298C09A779905C0D1
:100EC00083E08093FC0080E0089581E00895C0985D
:100ED000C29AB29BFECF00C000C0C09A00C000C042
:100EE00000009EB1892F807295FD04C094E090931C
:100EF000FC00089581E00895AF92BF92CF92DF92F7
:100F0000EF92FF920F931F93CF93DF937C01062FF5
:100F10008091FC0081608093FC00F701908190FD3E
:100F200003C082608093FC00BEDF982F882309F401
:100F300052C0102FE701BB24BA94AA24A394809135
:100F4000FC0083709E012F5F3F4F6901882361F190
:100F5000C29888818FB980EF91DFB8988EEF8EDFCD
:100F60002091FC0080FF0AC0922F917020FF04C0E6
:100F700081E08093FC002EC082E00FC0822F85703C
:100F8000843071F4F701808181608083A092FC003D
:100F90008ADF982F811115C08AE08093FC001BC066
:100FA0002E7F2093FC000BC0B89880EF67DF88830A
:100FB000113011F4BFB801C01FB88EEF5FDFE6013A
:100FC00002C0102FE701115009F0B9CF80DF91E086
:100FD000811101C090E0892FDF91CF911F910F9176
:100FE000FF90EF90DF90CF90BF90AF900895109258
:100FF000FC0082CF002480FD060E660F11F086955E
:10100000D1F7802D0895991B79E004C0991F961798
:1010100008F0961B881F7A95C9F780950895A1E27C
:101020001A2EAA1BBB1BFD010DC0AA1FBB1FEE1F62
:10103000FF1FA217B307E407F50720F0A21BB30BAD
:10104000E40BF50B661F771F881F991F1A9469F729
:1010500060957095809590959B01AC01BD01CF0185
:101060000895EE0FFF1F0590F491E02D09940CD028
:10107000E6C0DED040F0D5D030F021F45F3F19F06B
:10108000C7C0511110C1CAC0EBD098F39923C9F35E
:101090005523B1F3951B550BBB27AA27621773077E
:1010A000840738F09F5F5F4F220F331F441FAA1F32
:1010B000A9F333D00E2E3AF0E0E830D091505040F2
:1010C000E695001CCAF729D0FE2F27D0660F771FA0
:1010D000881FBB1F261737074807AB07B0E809F082
:1010E000BB0B802DBF01FF2793585F4F2AF09E3F17
:1010F000510568F08DC0D7C05F3FECF3983EDCF33C
:10110000869577956795B795F7959F5FC9F7880F8F
:10111000911D9695879597F90895E1E0660F771FE1
:10112000881FBB1F621773078407BA0720F0621B72
:10113000730B840BBA0BEE1F88F7E095089598D0D7
:1011400088F09F5790F0B92F9927B751A0F0D1F0B0
:10115000660F771F881F991F1AF0BA95C9F712C03A
:10116000B13081F09FD0B1E008959CC0672F782FF7
:101170008827B85F39F0B93FCCF3869577956795A6
:10118000B395D9F73EF490958095709561957F4F12
:101190008F4F9F4F0895E89409C097FB3EF49095B8
:1011A0008095709561957F4F8F4F9F4F9923A9F040
:1011B000F92F96E9BB279395F695879577956795CF
:1011C000B795F111F8CFFAF4BB0F11F460FF1BC013
:1011D0006F5F7F4F8F4F9F4F16C0882311F096E9A6
:1011E00011C0772321F09EE8872F762F05C0662354
:1011F00071F096E8862F70E060E02AF09A95660F0D
:10120000771F881FDAF7880F9695879597F90895C5
:1012100097F99F6780E870E060E008959FEF80ECA9
:10122000089500240A94161617061806090608954C
:1012300000240A9412161306140605060895092EB2
:101240000394000C11F4882352F0BB0F40F4BF2B21
:1012500011F460FF04C06F5F7F4F8F4F9F4F089561
:1012600057FD9058440F551F59F05F3F71F0479557
:10127000880F97FB991F61F09F3F79F0879508953C
:10128000121613061406551FF2CF4695F1DF08C05B
:10129000161617061806991FF1CF86957105610578
:1012A00008940895E894BB2766277727CB0197F920
:0612B0000895F894FFCF41
:1012B600525443206973204E4F542072756E6E69E6
:1012C6006E67210032323A32393A3434004E6F7644
:1012D60020323820323031350000000000A602A747
:1012E6000200000000B2025A017201A802AE02AB6F
:1012F60002B10200000000D102D402496E76616C90
:101306006964206D6561737572656D656E74206DB7
:081316006F64653A2030780095
:00000001FF
